{"abi":[{"type":"constructor","inputs":[{"name":"owner","type":"address","internalType":"address"},{"name":"gasManager","type":"address","internalType":"address"}],"stateMutability":"nonpayable"},{"type":"receive","stateMutability":"payable"},{"type":"function","name":"BLAST","inputs":[],"outputs":[{"name":"","type":"address","internalType":"contract IBlast"}],"stateMutability":"view"},{"type":"function","name":"allowance","inputs":[{"name":"owner","type":"address","internalType":"address"},{"name":"spender","type":"address","internalType":"address"}],"outputs":[{"name":"","type":"uint256","internalType":"uint256"}],"stateMutability":"view"},{"type":"function","name":"approve","inputs":[{"name":"spender","type":"address","internalType":"address"},{"name":"value","type":"uint256","internalType":"uint256"}],"outputs":[{"name":"","type":"bool","internalType":"bool"}],"stateMutability":"nonpayable"},{"type":"function","name":"balanceOf","inputs":[{"name":"account","type":"address","internalType":"address"}],"outputs":[{"name":"","type":"uint256","internalType":"uint256"}],"stateMutability":"view"},{"type":"function","name":"claimMaxGas","inputs":[{"name":"recipient","type":"address","internalType":"address"}],"outputs":[{"name":"gasAmount","type":"uint256","internalType":"uint256"}],"stateMutability":"nonpayable"},{"type":"function","name":"decimals","inputs":[],"outputs":[{"name":"","type":"uint8","internalType":"uint8"}],"stateMutability":"view"},{"type":"function","name":"deposit","inputs":[],"outputs":[],"stateMutability":"payable"},{"type":"function","name":"gasManager","inputs":[],"outputs":[{"name":"","type":"address","internalType":"address"}],"stateMutability":"view"},{"type":"function","name":"initialize","inputs":[{"name":"_vault","type":"address","internalType":"address"}],"outputs":[],"stateMutability":"nonpayable"},{"type":"function","name":"initialized","inputs":[],"outputs":[{"name":"","type":"bool","internalType":"bool"}],"stateMutability":"view"},{"type":"function","name":"mint","inputs":[{"name":"_account","type":"address","internalType":"address"},{"name":"_amount","type":"uint256","internalType":"uint256"}],"outputs":[],"stateMutability":"nonpayable"},{"type":"function","name":"name","inputs":[],"outputs":[{"name":"","type":"string","internalType":"string"}],"stateMutability":"view"},{"type":"function","name":"outETHVault","inputs":[],"outputs":[{"name":"","type":"address","internalType":"address"}],"stateMutability":"view"},{"type":"function","name":"owner","inputs":[],"outputs":[{"name":"","type":"address","internalType":"address"}],"stateMutability":"view"},{"type":"function","name":"readGasBalance","inputs":[],"outputs":[{"name":"","type":"uint256","internalType":"uint256"}],"stateMutability":"view"},{"type":"function","name":"renounceOwnership","inputs":[],"outputs":[],"stateMutability":"nonpayable"},{"type":"function","name":"setOutETHVault","inputs":[{"name":"_vault","type":"address","internalType":"address"}],"outputs":[],"stateMutability":"nonpayable"},{"type":"function","name":"symbol","inputs":[],"outputs":[{"name":"","type":"string","internalType":"string"}],"stateMutability":"view"},{"type":"function","name":"totalSupply","inputs":[],"outputs":[{"name":"","type":"uint256","internalType":"uint256"}],"stateMutability":"view"},{"type":"function","name":"transfer","inputs":[{"name":"to","type":"address","internalType":"address"},{"name":"value","type":"uint256","internalType":"uint256"}],"outputs":[{"name":"","type":"bool","internalType":"bool"}],"stateMutability":"nonpayable"},{"type":"function","name":"transferFrom","inputs":[{"name":"from","type":"address","internalType":"address"},{"name":"to","type":"address","internalType":"address"},{"name":"value","type":"uint256","internalType":"uint256"}],"outputs":[{"name":"","type":"bool","internalType":"bool"}],"stateMutability":"nonpayable"},{"type":"function","name":"transferGasManager","inputs":[{"name":"newGasManager","type":"address","internalType":"address"}],"outputs":[],"stateMutability":"nonpayable"},{"type":"function","name":"transferOwnership","inputs":[{"name":"newOwner","type":"address","internalType":"address"}],"outputs":[],"stateMutability":"nonpayable"},{"type":"function","name":"withdraw","inputs":[{"name":"amount","type":"uint256","internalType":"uint256"}],"outputs":[],"stateMutability":"nonpayable"},{"type":"event","name":"Approval","inputs":[{"name":"owner","type":"address","indexed":true,"internalType":"address"},{"name":"spender","type":"address","indexed":true,"internalType":"address"},{"name":"value","type":"uint256","indexed":false,"internalType":"uint256"}],"anonymous":false},{"type":"event","name":"ClaimMaxGas","inputs":[{"name":"recipient","type":"address","indexed":true,"internalType":"address"},{"name":"gasAmount","type":"uint256","indexed":false,"internalType":"uint256"}],"anonymous":false},{"type":"event","name":"Deposit","inputs":[{"name":"_account","type":"address","indexed":true,"internalType":"address"},{"name":"_amount","type":"uint256","indexed":false,"internalType":"uint256"}],"anonymous":false},{"type":"event","name":"GasManagerTransferred","inputs":[{"name":"previousGasManager","type":"address","indexed":true,"internalType":"address"},{"name":"newGasManager","type":"address","indexed":true,"internalType":"address"}],"anonymous":false},{"type":"event","name":"OwnershipTransferred","inputs":[{"name":"previousOwner","type":"address","indexed":true,"internalType":"address"},{"name":"newOwner","type":"address","indexed":true,"internalType":"address"}],"anonymous":false},{"type":"event","name":"SetOutETHVault","inputs":[{"name":"_outETHVault","type":"address","indexed":false,"internalType":"address"}],"anonymous":false},{"type":"event","name":"Transfer","inputs":[{"name":"from","type":"address","indexed":true,"internalType":"address"},{"name":"to","type":"address","indexed":true,"internalType":"address"},{"name":"value","type":"uint256","indexed":false,"internalType":"uint256"}],"anonymous":false},{"type":"event","name":"Withdraw","inputs":[{"name":"_account","type":"address","indexed":true,"internalType":"address"},{"name":"_amount","type":"uint256","indexed":false,"internalType":"uint256"}],"anonymous":false},{"type":"error","name":"AddressInsufficientBalance","inputs":[{"name":"account","type":"address","internalType":"address"}]},{"type":"error","name":"ERC20InsufficientAllowance","inputs":[{"name":"spender","type":"address","internalType":"address"},{"name":"allowance","type":"uint256","internalType":"uint256"},{"name":"needed","type":"uint256","internalType":"uint256"}]},{"type":"error","name":"ERC20InsufficientBalance","inputs":[{"name":"sender","type":"address","internalType":"address"},{"name":"balance","type":"uint256","internalType":"uint256"},{"name":"needed","type":"uint256","internalType":"uint256"}]},{"type":"error","name":"ERC20InvalidApprover","inputs":[{"name":"approver","type":"address","internalType":"address"}]},{"type":"error","name":"ERC20InvalidReceiver","inputs":[{"name":"receiver","type":"address","internalType":"address"}]},{"type":"error","name":"ERC20InvalidSender","inputs":[{"name":"sender","type":"address","internalType":"address"}]},{"type":"error","name":"ERC20InvalidSpender","inputs":[{"name":"spender","type":"address","internalType":"address"}]},{"type":"error","name":"FailedInnerCall","inputs":[]},{"type":"error","name":"InvalidGasManager","inputs":[{"name":"gasManager","type":"address","internalType":"address"}]},{"type":"error","name":"InvalidInitialization","inputs":[]},{"type":"error","name":"OwnableInvalidOwner","inputs":[{"name":"owner","type":"address","internalType":"address"}]},{"type":"error","name":"OwnableUnauthorizedAccount","inputs":[{"name":"account","type":"address","internalType":"address"}]},{"type":"error","name":"PermissionDenied","inputs":[]},{"type":"error","name":"UnauthorizedAccount","inputs":[{"name":"account","type":"address","internalType":"address"}]},{"type":"error","name":"ZeroInput","inputs":[]}],"bytecode":{"object":"0x6080346200029157620014cb90601f906001600160401b03601f1938859003848101821684019083821185831017620003a4578085916040988994855283398101031262000291576200005283620004c1565b90620000626020809501620004c1565b908651956200007187620004a5565b600a87526909eeae8e4eadc408aa8960b31b868801528751906200009582620004a5565b600597888352640dee48aa8960db1b88840152805191878311620003a45760039283546001938482811c921680156200049a575b8c83101462000484578b82858594116200042b575b50508b90848311600114620003c657600092620003ba575b505060001982861b1c191690831b1783555b835193888511620003a4576004998a548481811c9116801562000399575b8282101462000384578381116200033a575b5080928611600114620002ce575084955090849291600095620002c2575b50501b92600019911b1c19161784555b6001600160a01b0394828616908115620002ab578054610100600160a81b03198116600895861b610100600160a81b03161790915587519387939291901c83167f8be0079c531659141344cd1fd0a4f28419497f9722a3daafe3b4186f6b6457e0600080a316908115620002965750600680546001600160a01b031981168317909155855194167f820d8409eb2261e4f28201d3be272689ca6ebdd872f4fb34f71baea6cef20321600080a3734300000000000000000000000000000000000002803b15620002915783838160008094634e606c4760e01b83525af1801562000286576200025e575b8351610ff49081620004d78239f35b821162000271575081523880806200024f565b604190634e487b7160e01b6000525260246000fd5b84513d6000823e3d90fd5b600080fd5b631cbbb84960e31b8152600084820152602490fd5b8751631e4fbdf760e01b8152600081880152602490fd5b01519350388062000156565b939295859081168b60005285600020956000905b898383106200031f575050501062000304575b50505050811b01845562000166565b01519060f884600019921b161c1916905538808080620002f5565b858701518955909701969485019488935090810190620002e2565b8b600052816000208d85808a01821c830193858b106200037a575b01901c019085905b8281106200036d57505062000138565b600081550185906200035d565b9350829362000355565b60228c634e487b7160e01b6000525260246000fd5b90607f169062000126565b634e487b7160e01b600052604160045260246000fd5b015190503880620000f6565b908c91898795168860005283600020936000905b828210620004135750508411620003fa575b505050811b01835562000108565b015160001983881b60f8161c19169055388080620003ec565b83850151865589979095019493840193018f620003da565b90919250866000528d858360002092818701831c84019487106200047a575b918695949391899301901c01915b8281106200046a57508d9150620000de565b6000815585945087910162000458565b935082936200044a565b634e487b7160e01b600052602260045260246000fd5b91607f1691620000c9565b604081019081106001600160401b03821117620003a457604052565b51906001600160a01b0382168203620002915756fe60806040818152600480361015610029575b505050361561001f57600080fd5b610027610d4a565b005b600092833560e01c90816306fdde0314610ba257508063095ea7b314610af9578063158ef93e14610ad557806318160ddd14610ab657806323b872dd146109c35780632e1a7d4d14610853578063313ce567146108375780633acf4ce51461080e57806340c10f19146107c657806359c2dd681461077f57806364e5e3b1146106b357806370a082311461067c578063715018a61461061a5780638da5cb5b146105ed5780638f7fe49a1461054f57806395d89b411461044957806397d7577614610427578063a9059cbb146103f6578063b5e4a1c4146103cd578063c4d66de814610338578063cd2002f514610246578063d0e30db01461022c578063dd62ed3e146101da5763f2fde38b0361001157346101d65760203660031901126101d657610153610ce1565b61015b610f8f565b6001600160a01b038181169390929084156101c057505060058054610100600160a81b03198116600893841b610100600160a81b031617909155901c167f8be0079c531659141344cd1fd0a4f28419497f9722a3daafe3b4186f6b6457e0600080a380f35b51631e4fbdf760e01b8152908101859052602490fd5b8280fd5b5050346102285780600319360112610228576020916101f7610ce1565b82610200610cfc565b6001600160a01b03928316845260018652922091166000908152908352819020549051908152f35b5080fd5b838060031936011261024357610240610d4a565b80f35b80fd5b5091903461022857602092836003193601126101d657610264610ce1565b6006546001600160a01b039190339083160361032257835163662aa11d60e01b815230938101939093521660248201819052908481604481876002604360981b015af19384156103175780946102e5575b50507fd68ad86d3ece5caa9dec4dd80d3ced368f81b77895c4c9c4923a5f938748feb9848351858152a251908152f35b909193508482813d8311610310575b6102fe8183610d12565b810103126102435750519138806102b5565b503d6102f4565b8351903d90823e3d90fd5b83516332b2baa360e01b81523381850152602490fd5b50346101d65760203660031901126101d657610352610ce1565b906005549060ff82166103bf575060ff19166001176005557f5f5f398c218a99e2740184fb691e773e30f56ca503b40e8142f58d5d171be4da91602091610397610f8f565b600780546001600160a01b0319166001600160a01b039290921691821790559051908152a180f35b835163f92ee8a960e01b8152fd5b50503461022857816003193601126102285760065490516001600160a01b039091168152602090f35b505034610228578060031936011261022857602090610420610416610ce1565b6024359033610e3a565b5160018152f35b505034610228578160031936011261022857516002604360981b018152602090f35b5091903461022857816003193601126102285780519180938054916001908360011c9260018516948515610545575b60209586861081146105325785895290811561050e57506001146104b6575b6104b287876104a8828c0383610d12565b5191829182610c98565b0390f35b81529295507f8a35acfbc15ff81a39ae7d344fd709f28e8600b4aa8c65c6b64bfe7fe36bd19b5b8284106104fb57505050826104b2946104a892820101943880610497565b80548685018801529286019281016104dd565b60ff19168887015250505050151560051b83010192506104a8826104b23880610497565b634e487b7160e01b845260228352602484fd5b93607f1693610478565b50346101d65760203660031901126101d657610569610ce1565b6006546001600160a01b038082169391923385036105d757169384156105c15750506001600160a01b03191682176006557f820d8409eb2261e4f28201d3be272689ca6ebdd872f4fb34f71baea6cef203218380a380f35b51631cbbb84960e31b8152908101859052602490fd5b85516332b2baa360e01b81523381850152602490fd5b505034610228578160031936011261022857600554905160089190911c6001600160a01b03168152602090f35b8334610243578060031936011261024357610633610f8f565b60058054610100600160a81b0319811690915560009060081c6001600160a01b03167f8be0079c531659141344cd1fd0a4f28419497f9722a3daafe3b4186f6b6457e08280a380f35b5050346102285760203660031901126102285760209181906001600160a01b036106a4610ce1565b16815280845220549051908152f35b5090346101d657826003193601126101d657600654336001600160a01b0390911603610768578051633779e62960e21b815230928101929092526080826024816002604360981b015afa91821561075e578392610715575b6020838351908152f35b9091506080813d608011610756575b8161073160809383610d12565b810103126101d65760026060602083015192015110156101d65760209250903861070b565b3d9150610724565b81513d85823e3d90fd5b6024925051906332b2baa360e01b82523390820152fd5b5050346102285760203660031901126102285760207f5f5f398c218a99e2740184fb691e773e30f56ca503b40e8142f58d5d171be4da916107be610ce1565b610397610f8f565b50346101d657816003193601126101d6576107df610ce1565b6007549092906001600160a01b03163303610801578361024060243585610f18565b51630782484160e21b8152fd5b50503461022857816003193601126102285760075490516001600160a01b039091168152602090f35b5050346102285781600319360112610228576020905160128152f35b5090346101d65760203660031901126101d65781359182156109b55733156109a0573384528360205281842054838110610973579083859233845283602052038383205583600254036002558183518581527fddf252ad1be2c89b69c2b068fc378daa952ba7f163c4a11628f55a4df523b3ef60203392a36007546001600160a01b0316803b156101d6578290604485518095819363f3fef3a360e01b835233878401528960248401525af1801561096957610939575b5050519081527f884edad9ce6fa2440d8a54cc123490eb96d2768479d49ff9c7366125a942436460203392a280f35b67ffffffffffffffff82959395116109565750835291388061090a565b634e487b7160e01b835260419052602482fd5b83513d87823e3d90fd5b915163391434e360e21b815233918101918252602082019290925260408101929092529081906060010390fd5b836024925191634b637e8f60e11b8352820152fd5b905163af458c0760e01b8152fd5b508234610243576060366003190112610243576109de610ce1565b6109e6610cfc565b916044359360018060a01b038316808352600160205286832033845260205286832054916000198303610a22575b602088610420898989610e3a565b868310610a8a578115610a73573315610a5c5750825260016020908152868320338452815291869020908590039055829061042087610a14565b8751634a1406b160e11b8152908101849052602490fd5b875163e602df0560e01b8152908101849052602490fd5b8751637dc7a0d960e11b8152339181019182526020820193909352604081018790528291506060010390fd5b5050346102285781600319360112610228576020906002549051908152f35b50503461022857816003193601126102285760209060ff6005541690519015158152f35b50346101d657816003193601126101d657610b12610ce1565b602435903315610b8b576001600160a01b0316918215610b7457508083602095338152600187528181208582528752205582519081527f8c5be1e5ebec7d5bd14f71427d1e84f3dd0314c0f7b2291e5b200ac8c7c3b925843392a35160018152f35b8351634a1406b160e11b8152908101859052602490fd5b835163e602df0560e01b8152808401869052602490fd5b9291905034610c945783600319360112610c9457600354600181811c9186908281168015610c8a575b6020958686108214610c775750848852908115610c555750600114610bfc575b6104b286866104a8828b0383610d12565b929550600383527fc2575a0e9e593c00f959f8c92f12db2869c3395a3b0502d05e2516446f71f85b5b828410610c4257505050826104b2946104a8928201019438610beb565b8054868501880152928601928101610c25565b60ff191687860152505050151560051b83010192506104a8826104b238610beb565b634e487b7160e01b845260229052602483fd5b93607f1693610bcb565b8380fd5b6020808252825181830181905290939260005b828110610ccd57505060409293506000838284010152601f8019910116010190565b818101860151848201604001528501610cab565b600435906001600160a01b0382168203610cf757565b600080fd5b602435906001600160a01b0382168203610cf757565b90601f8019910116810190811067ffffffffffffffff821117610d3457604052565b634e487b7160e01b600052604160045260246000fd5b3415610e28576007546001600160a01b0316344710610e10576000808080809434905af1903d15610e0a573d9067ffffffffffffffff8211610df65760405191610d9e601f8201601f191660200184610d12565b825260203d92013e5b15610de457610db63433610f18565b6040513481527fe1fffcc4923d04b559f4d29a8bfc6cda04eb5b0d3c460751c2402c5c5cc9109c60203392a2565b604051630a12f52160e11b8152600490fd5b634e487b7160e01b81526041600452602490fd5b50610da7565b60405163cd78605960e01b8152306004820152602490fd5b60405163af458c0760e01b8152600490fd5b916001600160a01b03808416928315610eff5716928315610ee65760009083825281602052604082205490838210610eb4575091604082827fddf252ad1be2c89b69c2b068fc378daa952ba7f163c4a11628f55a4df523b3ef958760209652828652038282205586815220818154019055604051908152a3565b60405163391434e360e21b81526001600160a01b03919091166004820152602481019190915260448101839052606490fd5b60405163ec442f0560e01b815260006004820152602490fd5b604051634b637e8f60e11b815260006004820152602490fd5b6001600160a01b0316908115610ee65760025490808201809211610f795760207fddf252ad1be2c89b69c2b068fc378daa952ba7f163c4a11628f55a4df523b3ef9160009360025584845283825260408420818154019055604051908152a3565b634e487b7160e01b600052601160045260246000fd5b60055460081c6001600160a01b03163303610fa657565b60405163118cdaa760e01b8152336004820152602490fdfea2646970667358221220e153d7d3e8ad6964ec447c97efcf72a2553d8581d1fd3db5c71719c0ae0883c864736f6c63430008180033","linkReferences":{}},"methodIdentifiers":{"BLAST()":"97d75776","allowance(address,address)":"dd62ed3e","approve(address,uint256)":"095ea7b3","balanceOf(address)":"70a08231","claimMaxGas(address)":"cd2002f5","decimals()":"313ce567","deposit()":"d0e30db0","gasManager()":"b5e4a1c4","initialize(address)":"c4d66de8","initialized()":"158ef93e","mint(address,uint256)":"40c10f19","name()":"06fdde03","outETHVault()":"3acf4ce5","owner()":"8da5cb5b","readGasBalance()":"64e5e3b1","renounceOwnership()":"715018a6","setOutETHVault(address)":"59c2dd68","symbol()":"95d89b41","totalSupply()":"18160ddd","transfer(address,uint256)":"a9059cbb","transferFrom(address,address,uint256)":"23b872dd","transferGasManager(address)":"8f7fe49a","transferOwnership(address)":"f2fde38b","withdraw(uint256)":"2e1a7d4d"},"storageLayout":{"storage":[{"astId":41160,"contract":"src/token/ETH/ORETH.sol:ORETH","label":"_balances","offset":0,"slot":"0","type":"t_mapping(t_address,t_uint256)"},{"astId":41166,"contract":"src/token/ETH/ORETH.sol:ORETH","label":"_allowances","offset":0,"slot":"1","type":"t_mapping(t_address,t_mapping(t_address,t_uint256))"},{"astId":41168,"contract":"src/token/ETH/ORETH.sol:ORETH","label":"_totalSupply","offset":0,"slot":"2","type":"t_uint256"},{"astId":41170,"contract":"src/token/ETH/ORETH.sol:ORETH","label":"_name","offset":0,"slot":"3","type":"t_string_storage"},{"astId":41172,"contract":"src/token/ETH/ORETH.sol:ORETH","label":"_symbol","offset":0,"slot":"4","type":"t_string_storage"},{"astId":46728,"contract":"src/token/ETH/ORETH.sol:ORETH","label":"initialized","offset":0,"slot":"5","type":"t_bool"},{"astId":40861,"contract":"src/token/ETH/ORETH.sol:ORETH","label":"_owner","offset":1,"slot":"5","type":"t_address"},{"astId":42899,"contract":"src/token/ETH/ORETH.sol:ORETH","label":"_gasManager","offset":0,"slot":"6","type":"t_address"},{"astId":45521,"contract":"src/token/ETH/ORETH.sol:ORETH","label":"_outETHVault","offset":0,"slot":"7","type":"t_address"}],"types":{"t_address":{"encoding":"inplace","label":"address","numberOfBytes":"20"},"t_bool":{"encoding":"inplace","label":"bool","numberOfBytes":"1"},"t_mapping(t_address,t_mapping(t_address,t_uint256))":{"encoding":"mapping","key":"t_address","label":"mapping(address => mapping(address => uint256))","numberOfBytes":"32","value":"t_mapping(t_address,t_uint256)"},"t_mapping(t_address,t_uint256)":{"encoding":"mapping","key":"t_address","label":"mapping(address => uint256)","numberOfBytes":"32","value":"t_uint256"},"t_string_storage":{"encoding":"bytes","label":"string","numberOfBytes":"32"},"t_uint256":{"encoding":"inplace","label":"uint256","numberOfBytes":"32"}}},"id":37}