{"abi":[{"type":"constructor","inputs":[{"name":"owner","type":"address","internalType":"address"}],"stateMutability":"nonpayable"},{"type":"receive","stateMutability":"payable"},{"type":"function","name":"allowance","inputs":[{"name":"owner","type":"address","internalType":"address"},{"name":"spender","type":"address","internalType":"address"}],"outputs":[{"name":"","type":"uint256","internalType":"uint256"}],"stateMutability":"view"},{"type":"function","name":"approve","inputs":[{"name":"spender","type":"address","internalType":"address"},{"name":"value","type":"uint256","internalType":"uint256"}],"outputs":[{"name":"","type":"bool","internalType":"bool"}],"stateMutability":"nonpayable"},{"type":"function","name":"balanceOf","inputs":[{"name":"account","type":"address","internalType":"address"}],"outputs":[{"name":"","type":"uint256","internalType":"uint256"}],"stateMutability":"view"},{"type":"function","name":"decimals","inputs":[],"outputs":[{"name":"","type":"uint8","internalType":"uint8"}],"stateMutability":"view"},{"type":"function","name":"deposit","inputs":[],"outputs":[],"stateMutability":"payable"},{"type":"function","name":"mint","inputs":[{"name":"_account","type":"address","internalType":"address"},{"name":"_amount","type":"uint256","internalType":"uint256"}],"outputs":[],"stateMutability":"nonpayable"},{"type":"function","name":"name","inputs":[],"outputs":[{"name":"","type":"string","internalType":"string"}],"stateMutability":"view"},{"type":"function","name":"outETHVault","inputs":[],"outputs":[{"name":"","type":"address","internalType":"address"}],"stateMutability":"view"},{"type":"function","name":"owner","inputs":[],"outputs":[{"name":"","type":"address","internalType":"address"}],"stateMutability":"view"},{"type":"function","name":"renounceOwnership","inputs":[],"outputs":[],"stateMutability":"nonpayable"},{"type":"function","name":"setOutETHVault","inputs":[{"name":"_outETHVault","type":"address","internalType":"address"}],"outputs":[],"stateMutability":"nonpayable"},{"type":"function","name":"symbol","inputs":[],"outputs":[{"name":"","type":"string","internalType":"string"}],"stateMutability":"view"},{"type":"function","name":"totalSupply","inputs":[],"outputs":[{"name":"","type":"uint256","internalType":"uint256"}],"stateMutability":"view"},{"type":"function","name":"transfer","inputs":[{"name":"to","type":"address","internalType":"address"},{"name":"value","type":"uint256","internalType":"uint256"}],"outputs":[{"name":"","type":"bool","internalType":"bool"}],"stateMutability":"nonpayable"},{"type":"function","name":"transferFrom","inputs":[{"name":"from","type":"address","internalType":"address"},{"name":"to","type":"address","internalType":"address"},{"name":"value","type":"uint256","internalType":"uint256"}],"outputs":[{"name":"","type":"bool","internalType":"bool"}],"stateMutability":"nonpayable"},{"type":"function","name":"transferOwnership","inputs":[{"name":"newOwner","type":"address","internalType":"address"}],"outputs":[],"stateMutability":"nonpayable"},{"type":"function","name":"withdraw","inputs":[{"name":"amount","type":"uint256","internalType":"uint256"}],"outputs":[],"stateMutability":"nonpayable"},{"type":"event","name":"Approval","inputs":[{"name":"owner","type":"address","indexed":true,"internalType":"address"},{"name":"spender","type":"address","indexed":true,"internalType":"address"},{"name":"value","type":"uint256","indexed":false,"internalType":"uint256"}],"anonymous":false},{"type":"event","name":"Deposit","inputs":[{"name":"sender","type":"address","indexed":true,"internalType":"address"},{"name":"amount","type":"uint256","indexed":false,"internalType":"uint256"}],"anonymous":false},{"type":"event","name":"OutETHVaultUpdated","inputs":[{"name":"vault","type":"address","indexed":true,"internalType":"address"}],"anonymous":false},{"type":"event","name":"OwnershipTransferred","inputs":[{"name":"previousOwner","type":"address","indexed":true,"internalType":"address"},{"name":"newOwner","type":"address","indexed":true,"internalType":"address"}],"anonymous":false},{"type":"event","name":"SetOutETHVault","inputs":[{"name":"vault","type":"address","indexed":true,"internalType":"address"}],"anonymous":false},{"type":"event","name":"Transfer","inputs":[{"name":"from","type":"address","indexed":true,"internalType":"address"},{"name":"to","type":"address","indexed":true,"internalType":"address"},{"name":"value","type":"uint256","indexed":false,"internalType":"uint256"}],"anonymous":false},{"type":"event","name":"Withdraw","inputs":[{"name":"receiver","type":"address","indexed":true,"internalType":"address"},{"name":"amount","type":"uint256","indexed":false,"internalType":"uint256"}],"anonymous":false},{"type":"error","name":"AddressInsufficientBalance","inputs":[{"name":"account","type":"address","internalType":"address"}]},{"type":"error","name":"ERC20InsufficientAllowance","inputs":[{"name":"spender","type":"address","internalType":"address"},{"name":"allowance","type":"uint256","internalType":"uint256"},{"name":"needed","type":"uint256","internalType":"uint256"}]},{"type":"error","name":"ERC20InsufficientBalance","inputs":[{"name":"sender","type":"address","internalType":"address"},{"name":"balance","type":"uint256","internalType":"uint256"},{"name":"needed","type":"uint256","internalType":"uint256"}]},{"type":"error","name":"ERC20InvalidApprover","inputs":[{"name":"approver","type":"address","internalType":"address"}]},{"type":"error","name":"ERC20InvalidReceiver","inputs":[{"name":"receiver","type":"address","internalType":"address"}]},{"type":"error","name":"ERC20InvalidSender","inputs":[{"name":"sender","type":"address","internalType":"address"}]},{"type":"error","name":"ERC20InvalidSpender","inputs":[{"name":"spender","type":"address","internalType":"address"}]},{"type":"error","name":"FailedInnerCall","inputs":[]},{"type":"error","name":"OwnableInvalidOwner","inputs":[{"name":"owner","type":"address","internalType":"address"}]},{"type":"error","name":"OwnableUnauthorizedAccount","inputs":[{"name":"account","type":"address","internalType":"address"}]},{"type":"error","name":"PermissionDenied","inputs":[]},{"type":"error","name":"ZeroInput","inputs":[]}],"bytecode":{"object":"0x608034620003a4576001600160401b03601f601f1962001030388190038381018316860185811187821017620003a957869282916040528339602095869181010312620003a457516001600160a01b03948582169491859003620003a45762000067620003bf565b601281527109eeae8e4eadc40aee4c2e0e0cac8408aa8960731b828201526200008f620003bf565b94600495868152630a48aa8960e31b84820152825193858511620002aa576003948554946001958681811c9116801562000399575b8482101462000384579081868493116200032e575b508390868311600114620002cb57600092620002bf575b505060001982881b1c191690851b1785555b8151958611620002aa5787548481811c911680156200029f575b828210146200028a578381116200023f575b5080928611600114620001d3575084955090849291600095620001c7575b50501b92600019911b1c19161781555b8115620001af5750600580546001600160a01b03198116831790915560405192167f8be0079c531659141344cd1fd0a4f28419497f9722a3daafe3b4186f6b6457e0600080a3610c509081620003e08239f35b602490600060405191631e4fbdf760e01b8352820152fd5b0151935038806200014c565b939295859081168860005285600020956000905b8983831062000224575050501062000209575b50505050811b0181556200015c565b01519060f884600019921b161c1916905538808080620001fa565b858701518955909701969485019488935090810190620001e7565b88600052816000208480890160051c820192848a1062000280575b0160051c019085905b828110620002735750506200012e565b6000815501859062000263565b925081926200025a565b602289634e487b7160e01b6000525260246000fd5b90607f16906200011c565b604188634e487b7160e01b6000525260246000fd5b015190503880620000f0565b908a8894169189600052856000209260005b87828210620003175750508411620002fe575b505050811b01855562000102565b0151600019838a1b60f8161c19169055388080620002f0565b8385015186558b97909501949384019301620002dd565b90915087600052836000208680850160051c8201928686106200037a575b918991869594930160051c01915b8281106200036a575050620000d9565b600081558594508991016200035a565b925081926200034c565b60228b634e487b7160e01b6000525260246000fd5b90607f1690620000c4565b600080fd5b634e487b7160e01b600052604160045260246000fd5b60408051919082016001600160401b03811183821017620003a95760405256fe60806040818152600480361015610029575b505050361561001f57600080fd5b6100276109a9565b005b600092833560e01c90816306fdde031461080157508063095ea7b31461075857806318160ddd1461073957806323b872dd146106465780632e1a7d4d146104d6578063313ce567146104ba5780633acf4ce51461049157806340c10f191461044957806359c2dd68146103e157806370a08231146103aa578063715018a61461034c5780638da5cb5b1461032357806395d89b411461021d578063a9059cbb146101ec578063d0e30db0146101d2578063dd62ed3e146101805763f2fde38b03610011573461017c57602036600319011261017c57610106610940565b9061010f610bee565b6001600160a01b03918216928315610166575050600554826bffffffffffffffffffffffff60a01b821617600555167f8be0079c531659141344cd1fd0a4f28419497f9722a3daafe3b4186f6b6457e0600080a380f35b51631e4fbdf760e01b8152908101849052602490fd5b8280fd5b5050346101ce57806003193601126101ce5760209161019d610940565b826101a661095b565b6001600160a01b03928316845260018652922091166000908152908352819020549051908152f35b5080fd5b83806003193601126101e9576101e66109a9565b80f35b80fd5b5050346101ce57806003193601126101ce5760209061021661020c610940565b6024359033610a99565b5160018152f35b509190346101ce57816003193601126101ce5780519180938054916001908360011c9260018516948515610319575b6020958686108114610306578589529081156102e2575060011461028a575b610286878761027c828c0383610971565b51918291826108f7565b0390f35b81529295507f8a35acfbc15ff81a39ae7d344fd709f28e8600b4aa8c65c6b64bfe7fe36bd19b5b8284106102cf57505050826102869461027c9282010194388061026b565b80548685018801529286019281016102b1565b60ff19168887015250505050151560051b830101925061027c82610286388061026b565b634e487b7160e01b845260228352602484fd5b93607f169361024c565b5050346101ce57816003193601126101ce5760055490516001600160a01b039091168152602090f35b83346101e957806003193601126101e957610365610bee565b600580546001600160a01b031981169091556000906001600160a01b03167f8be0079c531659141344cd1fd0a4f28419497f9722a3daafe3b4186f6b6457e08280a380f35b5050346101ce5760203660031901126101ce5760209181906001600160a01b036103d2610940565b16815280845220549051908152f35b83346101e95760203660031901126101e9576103fb610940565b610403610bee565b600680546001600160a01b0319166001600160a01b039290921691821790557f5f5f398c218a99e2740184fb691e773e30f56ca503b40e8142f58d5d171be4da8280a280f35b503461017c578160031936011261017c57610462610940565b6006549092906001600160a01b0316330361048457836101e660243585610b77565b51630782484160e21b8152fd5b5050346101ce57816003193601126101ce5760065490516001600160a01b039091168152602090f35b5050346101ce57816003193601126101ce576020905160128152f35b50903461017c57602036600319011261017c5781359182156106385733156106235733845283602052818420548381106105f6579083859233845283602052038383205583600254036002558183518581527fddf252ad1be2c89b69c2b068fc378daa952ba7f163c4a11628f55a4df523b3ef60203392a36006546001600160a01b0316803b1561017c578290604485518095819363f3fef3a360e01b835233878401528960248401525af180156105ec576105bc575b5050519081527f884edad9ce6fa2440d8a54cc123490eb96d2768479d49ff9c7366125a942436460203392a280f35b67ffffffffffffffff82959395116105d95750835291388061058d565b634e487b7160e01b835260419052602482fd5b83513d87823e3d90fd5b915163391434e360e21b815233918101918252602082019290925260408101929092529081906060010390fd5b836024925191634b637e8f60e11b8352820152fd5b905163af458c0760e01b8152fd5b5082346101e95760603660031901126101e957610661610940565b61066961095b565b916044359360018060a01b0383168083526001602052868320338452602052868320549160001983036106a5575b602088610216898989610a99565b86831061070d5781156106f65733156106df5750825260016020908152868320338452815291869020908590039055829061021687610697565b8751634a1406b160e11b8152908101849052602490fd5b875163e602df0560e01b8152908101849052602490fd5b8751637dc7a0d960e11b8152339181019182526020820193909352604081018790528291506060010390fd5b5050346101ce57816003193601126101ce576020906002549051908152f35b503461017c578160031936011261017c57610771610940565b6024359033156107ea576001600160a01b03169182156107d357508083602095338152600187528181208582528752205582519081527f8c5be1e5ebec7d5bd14f71427d1e84f3dd0314c0f7b2291e5b200ac8c7c3b925843392a35160018152f35b8351634a1406b160e11b8152908101859052602490fd5b835163e602df0560e01b8152808401869052602490fd5b92919050346108f357836003193601126108f357600354600181811c91869082811680156108e9575b60209586861082146108d657508488529081156108b4575060011461085b575b610286868661027c828b0383610971565b929550600383527fc2575a0e9e593c00f959f8c92f12db2869c3395a3b0502d05e2516446f71f85b5b8284106108a157505050826102869461027c92820101943861084a565b8054868501880152928601928101610884565b60ff191687860152505050151560051b830101925061027c826102863861084a565b634e487b7160e01b845260229052602483fd5b93607f169361082a565b8380fd5b6020808252825181830181905290939260005b82811061092c57505060409293506000838284010152601f8019910116010190565b81810186015184820160400152850161090a565b600435906001600160a01b038216820361095657565b600080fd5b602435906001600160a01b038216820361095657565b90601f8019910116810190811067ffffffffffffffff82111761099357604052565b634e487b7160e01b600052604160045260246000fd5b3415610a87576006546001600160a01b0316344710610a6f576000808080809434905af1903d15610a69573d9067ffffffffffffffff8211610a5557604051916109fd601f8201601f191660200184610971565b825260203d92013e5b15610a4357610a153433610b77565b6040513481527fe1fffcc4923d04b559f4d29a8bfc6cda04eb5b0d3c460751c2402c5c5cc9109c60203392a2565b604051630a12f52160e11b8152600490fd5b634e487b7160e01b81526041600452602490fd5b50610a06565b60405163cd78605960e01b8152306004820152602490fd5b60405163af458c0760e01b8152600490fd5b916001600160a01b03808416928315610b5e5716928315610b455760009083825281602052604082205490838210610b13575091604082827fddf252ad1be2c89b69c2b068fc378daa952ba7f163c4a11628f55a4df523b3ef958760209652828652038282205586815220818154019055604051908152a3565b60405163391434e360e21b81526001600160a01b03919091166004820152602481019190915260448101839052606490fd5b60405163ec442f0560e01b815260006004820152602490fd5b604051634b637e8f60e11b815260006004820152602490fd5b6001600160a01b0316908115610b455760025490808201809211610bd85760207fddf252ad1be2c89b69c2b068fc378daa952ba7f163c4a11628f55a4df523b3ef9160009360025584845283825260408420818154019055604051908152a3565b634e487b7160e01b600052601160045260246000fd5b6005546001600160a01b03163303610c0257565b60405163118cdaa760e01b8152336004820152602490fdfea2646970667358221220cc074000d3d0b4c2bd4a4a4dd81bf50fe5dd7eb596b27d2dcec6ff56d0591f4364736f6c63430008180033","linkReferences":{}},"methodIdentifiers":{"allowance(address,address)":"dd62ed3e","approve(address,uint256)":"095ea7b3","balanceOf(address)":"70a08231","decimals()":"313ce567","deposit()":"d0e30db0","mint(address,uint256)":"40c10f19","name()":"06fdde03","outETHVault()":"3acf4ce5","owner()":"8da5cb5b","renounceOwnership()":"715018a6","setOutETHVault(address)":"59c2dd68","symbol()":"95d89b41","totalSupply()":"18160ddd","transfer(address,uint256)":"a9059cbb","transferFrom(address,address,uint256)":"23b872dd","transferOwnership(address)":"f2fde38b","withdraw(uint256)":"2e1a7d4d"},"storageLayout":{"storage":[{"astId":45271,"contract":"test/utils/RETH.sol:RETH","label":"_balances","offset":0,"slot":"0","type":"t_mapping(t_address,t_uint256)"},{"astId":45277,"contract":"test/utils/RETH.sol:RETH","label":"_allowances","offset":0,"slot":"1","type":"t_mapping(t_address,t_mapping(t_address,t_uint256))"},{"astId":45279,"contract":"test/utils/RETH.sol:RETH","label":"_totalSupply","offset":0,"slot":"2","type":"t_uint256"},{"astId":45281,"contract":"test/utils/RETH.sol:RETH","label":"_name","offset":0,"slot":"3","type":"t_string_storage"},{"astId":45283,"contract":"test/utils/RETH.sol:RETH","label":"_symbol","offset":0,"slot":"4","type":"t_string_storage"},{"astId":44947,"contract":"test/utils/RETH.sol:RETH","label":"_owner","offset":0,"slot":"5","type":"t_address"},{"astId":57798,"contract":"test/utils/RETH.sol:RETH","label":"outETHVault","offset":0,"slot":"6","type":"t_address"}],"types":{"t_address":{"encoding":"inplace","label":"address","numberOfBytes":"20"},"t_mapping(t_address,t_mapping(t_address,t_uint256))":{"encoding":"mapping","key":"t_address","label":"mapping(address => mapping(address => uint256))","numberOfBytes":"32","value":"t_mapping(t_address,t_uint256)"},"t_mapping(t_address,t_uint256)":{"encoding":"mapping","key":"t_address","label":"mapping(address => uint256)","numberOfBytes":"32","value":"t_uint256"},"t_string_storage":{"encoding":"bytes","label":"string","numberOfBytes":"32"},"t_uint256":{"encoding":"inplace","label":"uint256","numberOfBytes":"32"}}},"id":59}