{"abi":[{"type":"constructor","inputs":[{"name":"owner","type":"address","internalType":"address"}],"stateMutability":"nonpayable"},{"type":"function","name":"USDB","inputs":[],"outputs":[{"name":"","type":"address","internalType":"address"}],"stateMutability":"view"},{"type":"function","name":"allowance","inputs":[{"name":"owner","type":"address","internalType":"address"},{"name":"spender","type":"address","internalType":"address"}],"outputs":[{"name":"","type":"uint256","internalType":"uint256"}],"stateMutability":"view"},{"type":"function","name":"approve","inputs":[{"name":"spender","type":"address","internalType":"address"},{"name":"value","type":"uint256","internalType":"uint256"}],"outputs":[{"name":"","type":"bool","internalType":"bool"}],"stateMutability":"nonpayable"},{"type":"function","name":"balanceOf","inputs":[{"name":"account","type":"address","internalType":"address"}],"outputs":[{"name":"","type":"uint256","internalType":"uint256"}],"stateMutability":"view"},{"type":"function","name":"decimals","inputs":[],"outputs":[{"name":"","type":"uint8","internalType":"uint8"}],"stateMutability":"view"},{"type":"function","name":"deposit","inputs":[{"name":"amount","type":"uint256","internalType":"uint256"}],"outputs":[],"stateMutability":"nonpayable"},{"type":"function","name":"mint","inputs":[{"name":"_account","type":"address","internalType":"address"},{"name":"_amount","type":"uint256","internalType":"uint256"}],"outputs":[],"stateMutability":"nonpayable"},{"type":"function","name":"name","inputs":[],"outputs":[{"name":"","type":"string","internalType":"string"}],"stateMutability":"view"},{"type":"function","name":"outUSDBVault","inputs":[],"outputs":[{"name":"","type":"address","internalType":"address"}],"stateMutability":"view"},{"type":"function","name":"owner","inputs":[],"outputs":[{"name":"","type":"address","internalType":"address"}],"stateMutability":"view"},{"type":"function","name":"renounceOwnership","inputs":[],"outputs":[],"stateMutability":"nonpayable"},{"type":"function","name":"setOutUSDBVault","inputs":[{"name":"_outUSDBVault","type":"address","internalType":"address"}],"outputs":[],"stateMutability":"nonpayable"},{"type":"function","name":"symbol","inputs":[],"outputs":[{"name":"","type":"string","internalType":"string"}],"stateMutability":"view"},{"type":"function","name":"totalSupply","inputs":[],"outputs":[{"name":"","type":"uint256","internalType":"uint256"}],"stateMutability":"view"},{"type":"function","name":"transfer","inputs":[{"name":"to","type":"address","internalType":"address"},{"name":"value","type":"uint256","internalType":"uint256"}],"outputs":[{"name":"","type":"bool","internalType":"bool"}],"stateMutability":"nonpayable"},{"type":"function","name":"transferFrom","inputs":[{"name":"from","type":"address","internalType":"address"},{"name":"to","type":"address","internalType":"address"},{"name":"value","type":"uint256","internalType":"uint256"}],"outputs":[{"name":"","type":"bool","internalType":"bool"}],"stateMutability":"nonpayable"},{"type":"function","name":"transferOwnership","inputs":[{"name":"newOwner","type":"address","internalType":"address"}],"outputs":[],"stateMutability":"nonpayable"},{"type":"function","name":"withdraw","inputs":[{"name":"amount","type":"uint256","internalType":"uint256"}],"outputs":[],"stateMutability":"nonpayable"},{"type":"event","name":"Approval","inputs":[{"name":"owner","type":"address","indexed":true,"internalType":"address"},{"name":"spender","type":"address","indexed":true,"internalType":"address"},{"name":"value","type":"uint256","indexed":false,"internalType":"uint256"}],"anonymous":false},{"type":"event","name":"Deposit","inputs":[{"name":"sender","type":"address","indexed":true,"internalType":"address"},{"name":"amount","type":"uint256","indexed":false,"internalType":"uint256"}],"anonymous":false},{"type":"event","name":"OutETHVaultUpdated","inputs":[{"name":"vault","type":"address","indexed":true,"internalType":"address"}],"anonymous":false},{"type":"event","name":"OwnershipTransferred","inputs":[{"name":"previousOwner","type":"address","indexed":true,"internalType":"address"},{"name":"newOwner","type":"address","indexed":true,"internalType":"address"}],"anonymous":false},{"type":"event","name":"SetOutUSDBVault","inputs":[{"name":"vault","type":"address","indexed":true,"internalType":"address"}],"anonymous":false},{"type":"event","name":"Transfer","inputs":[{"name":"from","type":"address","indexed":true,"internalType":"address"},{"name":"to","type":"address","indexed":true,"internalType":"address"},{"name":"value","type":"uint256","indexed":false,"internalType":"uint256"}],"anonymous":false},{"type":"event","name":"Withdraw","inputs":[{"name":"receiver","type":"address","indexed":true,"internalType":"address"},{"name":"amount","type":"uint256","indexed":false,"internalType":"uint256"}],"anonymous":false},{"type":"error","name":"AddressEmptyCode","inputs":[{"name":"target","type":"address","internalType":"address"}]},{"type":"error","name":"AddressInsufficientBalance","inputs":[{"name":"account","type":"address","internalType":"address"}]},{"type":"error","name":"ERC20InsufficientAllowance","inputs":[{"name":"spender","type":"address","internalType":"address"},{"name":"allowance","type":"uint256","internalType":"uint256"},{"name":"needed","type":"uint256","internalType":"uint256"}]},{"type":"error","name":"ERC20InsufficientBalance","inputs":[{"name":"sender","type":"address","internalType":"address"},{"name":"balance","type":"uint256","internalType":"uint256"},{"name":"needed","type":"uint256","internalType":"uint256"}]},{"type":"error","name":"ERC20InvalidApprover","inputs":[{"name":"approver","type":"address","internalType":"address"}]},{"type":"error","name":"ERC20InvalidReceiver","inputs":[{"name":"receiver","type":"address","internalType":"address"}]},{"type":"error","name":"ERC20InvalidSender","inputs":[{"name":"sender","type":"address","internalType":"address"}]},{"type":"error","name":"ERC20InvalidSpender","inputs":[{"name":"spender","type":"address","internalType":"address"}]},{"type":"error","name":"FailedInnerCall","inputs":[]},{"type":"error","name":"OwnableInvalidOwner","inputs":[{"name":"owner","type":"address","internalType":"address"}]},{"type":"error","name":"OwnableUnauthorizedAccount","inputs":[{"name":"account","type":"address","internalType":"address"}]},{"type":"error","name":"PermissionDenied","inputs":[]},{"type":"error","name":"SafeERC20FailedOperation","inputs":[{"name":"token","type":"address","internalType":"address"}]},{"type":"error","name":"ZeroInput","inputs":[]}],"bytecode":{"object":"0x608034620003af576001600160401b03601f601f196200112e388190038381018316860185811187821017620003b457869282916040528339602095869181010312620003af57516001600160a01b03948582169491859003620003af5762000067620003ca565b601381527f4f757472756e2057726170706564205553444200000000000000000000000000828201526200009a620003ca565b9460049586815263149554d160e21b84820152825193858511620002b5576003948554946001958681811c91168015620003a4575b848210146200038f5790818684931162000339575b508390868311600114620002d657600092620002ca575b505060001982881b1c191690851b1785555b8151958611620002b55787548481811c91168015620002aa575b8282101462000295578381116200024a575b5080928611600114620001de575084955090849291600095620001d2575b50501b92600019911b1c19161781555b8115620001ba5750600580546001600160a01b03198116831790915560405192167f8be0079c531659141344cd1fd0a4f28419497f9722a3daafe3b4186f6b6457e0600080a3610d439081620003eb8239f35b602490600060405191631e4fbdf760e01b8352820152fd5b01519350388062000157565b939295859081168860005285600020956000905b898383106200022f575050501062000214575b50505050811b01815562000167565b01519060f884600019921b161c191690553880808062000205565b858701518955909701969485019488935090810190620001f2565b88600052816000208480890160051c820192848a106200028b575b0160051c019085905b8281106200027e57505062000139565b600081550185906200026e565b9250819262000265565b602289634e487b7160e01b6000525260246000fd5b90607f169062000127565b604188634e487b7160e01b6000525260246000fd5b015190503880620000fb565b908a8894169189600052856000209260005b8782821062000322575050841162000309575b505050811b0185556200010d565b0151600019838a1b60f8161c19169055388080620002fb565b8385015186558b97909501949384019301620002e8565b90915087600052836000208680850160051c82019286861062000385575b918991869594930160051c01915b82811062000375575050620000e4565b6000815585945089910162000365565b9250819262000357565b60228b634e487b7160e01b6000525260246000fd5b90607f1690620000cf565b600080fd5b634e487b7160e01b600052604160045260246000fd5b60408051919082016001600160401b03811183821017620003b45760405256fe6080604081815260048036101561001557600080fd5b600092833560e01c90816306fdde031461097f57508063095ea7b3146108d657806318160ddd146108b757806323b872dd146107c45780632d8dbc6e1461075c5780632e1a7d4d146105fa578063313ce567146105de57806331a0edec146105bc57806340c10f191461057157806370a082311461053a578063715018a6146104d95780638da5cb5b146104b057806395d89b41146103aa578063a9059cbb14610379578063b6b55f25146101f7578063dd62ed3e146101a9578063eb2cd05f1461017c5763f2fde38b146100e957600080fd5b3461017857602036600319011261017857610102610aba565b9061010b610c01565b6001600160a01b03918216928315610162575050600554826bffffffffffffffffffffffff60a01b821617600555167f8be0079c531659141344cd1fd0a4f28419497f9722a3daafe3b4186f6b6457e0600080a380f35b51631e4fbdf760e01b8152908101849052602490fd5b8280fd5b5050346101a557816003193601126101a55760065490516001600160a01b039091168152602090f35b5080fd5b5050346101a557806003193601126101a5576020916101c6610aba565b826101cf610ad5565b6001600160a01b03928316845260018652922091166000908152908352819020549051908152f35b50903461017857602090816003193601126103755782359283156103675760065482516323b872dd60e01b8582019081523360248301526001600160a01b0390921660448201526064808201879052815267ffffffffffffffff9060a0810181811083821117610352578552516022602160991b01928891829182865af13d15610345573d91821161033257906102ab9185519161029e88601f19601f8401160184610aeb565b82523d898884013e610ca4565b805185811515918261030d575b505090506102f9575050907fe1fffcc4923d04b559f4d29a8bfc6cda04eb5b0d3c460751c2402c5c5cc9109c916102ef8433610c2d565b519283523392a280f35b6024925191635274afe760e01b8352820152fd5b838092935001031261032e5784015180159081150361032e578085386102b8565b8680fd5b634e487b7160e01b885260418452602488fd5b6102ab9150606090610ca4565b604185634e487b7160e01b6000525260246000fd5b905163af458c0760e01b8152fd5b8380fd5b5050346101a557806003193601126101a5576020906103a3610399610aba565b6024359033610b23565b5160018152f35b509190346101a557816003193601126101a55780519180938054916001908360011c92600185169485156104a6575b60209586861081146104935785895290811561046f5750600114610417575b6104138787610409828c0383610aeb565b5191829182610a71565b0390f35b81529295507f8a35acfbc15ff81a39ae7d344fd709f28e8600b4aa8c65c6b64bfe7fe36bd19b5b82841061045c575050508261041394610409928201019438806103f8565b805486850188015292860192810161043e565b60ff19168887015250505050151560051b83010192506104098261041338806103f8565b634e487b7160e01b845260228352602484fd5b93607f16936103d9565b5050346101a557816003193601126101a55760055490516001600160a01b039091168152602090f35b83346105375780600319360112610537576104f2610c01565b600580546001600160a01b031981169091556000906001600160a01b03167f8be0079c531659141344cd1fd0a4f28419497f9722a3daafe3b4186f6b6457e08280a380f35b80fd5b5050346101a55760203660031901126101a55760209181906001600160a01b03610562610aba565b16815280845220549051908152f35b503461017857816003193601126101785761058a610aba565b6006549092906001600160a01b031633036105af57836105ac60243585610c2d565b80f35b51630782484160e21b8152fd5b5050346101a557816003193601126101a557516022602160991b018152602090f35b5050346101a557816003193601126101a5576020905160128152f35b50903461017857602036600319011261017857813591821561036757331561074757338452836020528184205483811061071a579083859233845283602052038383205583600254036002558183518581527fddf252ad1be2c89b69c2b068fc378daa952ba7f163c4a11628f55a4df523b3ef60203392a36006546001600160a01b0316803b15610178578290604485518095819363f3fef3a360e01b835233878401528960248401525af18015610710576106e0575b5050519081527f884edad9ce6fa2440d8a54cc123490eb96d2768479d49ff9c7366125a942436460203392a280f35b67ffffffffffffffff82959395116106fd575083529138806106b1565b634e487b7160e01b835260419052602482fd5b83513d87823e3d90fd5b915163391434e360e21b815233918101918252602082019290925260408101929092529081906060010390fd5b836024925191634b637e8f60e11b8352820152fd5b833461053757602036600319011261053757610776610aba565b61077e610c01565b600680546001600160a01b0319166001600160a01b039290921691821790557fbe5657d64d7eb9724e9a069fe199768b40f13f959050141eaa1c5985a31212c78280a280f35b508234610537576060366003190112610537576107df610aba565b6107e7610ad5565b916044359360018060a01b038316808352600160205286832033845260205286832054916000198303610823575b6020886103a3898989610b23565b86831061088b57811561087457331561085d575082526001602090815286832033845281529186902090859003905582906103a387610815565b8751634a1406b160e11b8152908101849052602490fd5b875163e602df0560e01b8152908101849052602490fd5b8751637dc7a0d960e11b8152339181019182526020820193909352604081018790528291506060010390fd5b5050346101a557816003193601126101a5576020906002549051908152f35b50346101785781600319360112610178576108ef610aba565b602435903315610968576001600160a01b031691821561095157508083602095338152600187528181208582528752205582519081527f8c5be1e5ebec7d5bd14f71427d1e84f3dd0314c0f7b2291e5b200ac8c7c3b925843392a35160018152f35b8351634a1406b160e11b8152908101859052602490fd5b835163e602df0560e01b8152808401869052602490fd5b9291905034610375578360031936011261037557600354600181811c9186908281168015610a67575b6020958686108214610a545750848852908115610a3257506001146109d9575b6104138686610409828b0383610aeb565b929550600383527fc2575a0e9e593c00f959f8c92f12db2869c3395a3b0502d05e2516446f71f85b5b828410610a1f5750505082610413946104099282010194386109c8565b8054868501880152928601928101610a02565b60ff191687860152505050151560051b830101925061040982610413386109c8565b634e487b7160e01b845260229052602483fd5b93607f16936109a8565b6020808252825181830181905290939260005b828110610aa657505060409293506000838284010152601f8019910116010190565b818101860151848201604001528501610a84565b600435906001600160a01b0382168203610ad057565b600080fd5b602435906001600160a01b0382168203610ad057565b90601f8019910116810190811067ffffffffffffffff821117610b0d57604052565b634e487b7160e01b600052604160045260246000fd5b916001600160a01b03808416928315610be85716928315610bcf5760009083825281602052604082205490838210610b9d575091604082827fddf252ad1be2c89b69c2b068fc378daa952ba7f163c4a11628f55a4df523b3ef958760209652828652038282205586815220818154019055604051908152a3565b60405163391434e360e21b81526001600160a01b03919091166004820152602481019190915260448101839052606490fd5b60405163ec442f0560e01b815260006004820152602490fd5b604051634b637e8f60e11b815260006004820152602490fd5b6005546001600160a01b03163303610c1557565b60405163118cdaa760e01b8152336004820152602490fd5b6001600160a01b0316908115610bcf5760025490808201809211610c8e5760207fddf252ad1be2c89b69c2b068fc378daa952ba7f163c4a11628f55a4df523b3ef9160009360025584845283825260408420818154019055604051908152a3565b634e487b7160e01b600052601160045260246000fd5b909190610ccd5750805115610cbb57805190602001fd5b604051630a12f52160e11b8152600490fd5b9080511580610cfd575b610cde5790565b604051639996b31560e01b81526022602160991b016004820152602490fd5b506022602160991b013b15610cd756fea2646970667358221220a1b81766819f97466d3e89439e2ef416684ecdad2472c7dee5dc8ce43e02891c64736f6c63430008180033","linkReferences":{}},"methodIdentifiers":{"USDB()":"31a0edec","allowance(address,address)":"dd62ed3e","approve(address,uint256)":"095ea7b3","balanceOf(address)":"70a08231","decimals()":"313ce567","deposit(uint256)":"b6b55f25","mint(address,uint256)":"40c10f19","name()":"06fdde03","outUSDBVault()":"eb2cd05f","owner()":"8da5cb5b","renounceOwnership()":"715018a6","setOutUSDBVault(address)":"2d8dbc6e","symbol()":"95d89b41","totalSupply()":"18160ddd","transfer(address,uint256)":"a9059cbb","transferFrom(address,address,uint256)":"23b872dd","transferOwnership(address)":"f2fde38b","withdraw(uint256)":"2e1a7d4d"},"storageLayout":{"storage":[{"astId":45271,"contract":"test/utils/RUSD.sol:RUSD","label":"_balances","offset":0,"slot":"0","type":"t_mapping(t_address,t_uint256)"},{"astId":45277,"contract":"test/utils/RUSD.sol:RUSD","label":"_allowances","offset":0,"slot":"1","type":"t_mapping(t_address,t_mapping(t_address,t_uint256))"},{"astId":45279,"contract":"test/utils/RUSD.sol:RUSD","label":"_totalSupply","offset":0,"slot":"2","type":"t_uint256"},{"astId":45281,"contract":"test/utils/RUSD.sol:RUSD","label":"_name","offset":0,"slot":"3","type":"t_string_storage"},{"astId":45283,"contract":"test/utils/RUSD.sol:RUSD","label":"_symbol","offset":0,"slot":"4","type":"t_string_storage"},{"astId":44947,"contract":"test/utils/RUSD.sol:RUSD","label":"_owner","offset":0,"slot":"5","type":"t_address"},{"astId":59155,"contract":"test/utils/RUSD.sol:RUSD","label":"outUSDBVault","offset":0,"slot":"6","type":"t_address"}],"types":{"t_address":{"encoding":"inplace","label":"address","numberOfBytes":"20"},"t_mapping(t_address,t_mapping(t_address,t_uint256))":{"encoding":"mapping","key":"t_address","label":"mapping(address => mapping(address => uint256))","numberOfBytes":"32","value":"t_mapping(t_address,t_uint256)"},"t_mapping(t_address,t_uint256)":{"encoding":"mapping","key":"t_address","label":"mapping(address => uint256)","numberOfBytes":"32","value":"t_uint256"},"t_string_storage":{"encoding":"bytes","label":"string","numberOfBytes":"32"},"t_uint256":{"encoding":"inplace","label":"uint256","numberOfBytes":"32"}}},"id":66}